:100000000C9422100C945A100C945A100C945A1000
:100010000C945A100C945A100C945A100C945A10B8
:100020000C945A100C945A100C9469200C942520AE
:100030000C94FF280C945A100C945A100C945A10DB
:100040000C945A100C945A100C945A100C945A1088
:100050000C945A100C9442210C945A100C945A107F
:100060000C945A100C945A100C945A100C945A1068
:100070000C945A100C945A100C945A100C945A1058
:100080000C945A100C945A100C945A100C945A1048
:100090000C945A100C945A100C945A100C945A1038
:1000A0000C945A100C945A100C945A1005010980A3
:1000B000A101850319012AB700150126B700950192
:1000C00075108100C0050C0901A101850419012AE0
:1000D000A002150126A002950175108100C00660DE
:1000E000FF0961A1010962150026FF00952075082E
:1000F00081020963150026FF00952075089102C052
:1001000005010906A101050719E029E715002501E8
:10011000950875018102950175088101050719008F
:1001200029FF150026FF00950675088100050819AE
:10013000012905950575019102950175039101C08D
:1001400000000000000000000000000000000000AF
:10015000000000000000000000000000000000009F
:10016000000000000000000000000000000000008F
:10017000000000000000000000000000000000007F
:1001800000008080804040202010080402040810F5
:10019000102020404080800000000000000000008F
:1001A000000000000000000000000000000000004F
:1001B000000000000000000000000000000000003F
:1001C000000000000000000000000000000000002F
:1001D000000000000000000000000000000000001F
:1001E000000000000000000000000000000000000F
:1001F0000000003FC10101020204040404020201E4
:1002000001010000000000008000004080804000EC
:1002100000303000000000010264180412C2CA2439
:1002200088F0808040404040202020201010101096
:100230000808080804040404020202020101010182
:1002400000000000000000000000000000000000AE
:10025000000000000000000000000000000000009E
:10026000000000000000000000000000000000008E
:100270000000E0180601000000000000000000007F
:100280000080838340404040202121201010101026
:100290000808080804040404020202020101010122
:1002A000000000000000000000000000000000004E
:1002B000000000000000000000000000000000003E
:1002C000000000000000000000000000000000002E
:1002D000000000000000000000000000000000001E
:1002E000808080804040404020202020101010104E
:1002F000080F080804040404020408101020204019
:100300004041422498C088888C9C1C1E0E06000028
:1003100000000000000000000000000000000000DD
:1003200000000000000000000000000000000000CD
:1003300000000000000000000000000000000000BD
:1003400000000000000000000000000000000000AD
:10035000000000000000000000000000000000009D
:10036000000000000000000000000000000000008D
:10037000000000000000000000000000000000007D
:10038000000000000000000000000000000000006D
:10039000000000000000000000000000000000005D
:1003A000000000000000000000000000000000004D
:1003B000000000000000000000000000000000003D
:1003C000000000000000000000000000000000002D
:1003D000000000000000000000000000000000001D
:1003E000000000000000000000000000000000000D
:1003F00000000000000000000000000000008080FD
:1004000080404020201008040204081010202040E2
:10041000408080000000000000000000000000009C
:1004200000000000000000000000000000000000CC
:1004300000000000000000000000000000000000BC
:1004400000000000000000000000000000000000AC
:10045000000000000000000000000000000000009C
:100460000000000000000000000000000000003F4D
:10047000C1010102020484444442820101010000DE
:10048000000000008000004080804000003030000C
:1004900000000001020404080810204080808080D1
:1004A000404040402020202010101010080808086C
:1004B0000404040402020202010101010000000020
:1004C000000000000000000000000000000000002C
:1004D000000000000000000000000000000000001C
:1004E0000000000000000000000000000000E01814
:1004F000060100000C03000218190005FE8083832A
:100500004040404020212120101010100808080809
:1005100004040404040830408080000001869860D0
:1005200000000000000000000000000000000000CB
:1005300000000000000000000000000000000000BB
:1005400000000000000000000000000000000000AB
:10055000000000000000000000000000808080809B
:10056000404040402020202010101010080F0808A4
:10057000040404040202020201010101000000005F
:100580000000000000000000000000000000000665
:100590000F0F07030361F0F8FC600101013C78F8DC
:1005A000F0700000000000000000000000000000EB
:1005B000000000000000000000000000000000003B
:1005C000000000000000000000000000000000002B
:1005D000000000000000000000000000000000001B
:1005E000000000000000000000000000000000000B
:1005F00000000000000000000000000000000000FB
:1006000000000000000000000000000000000000EA
:1006100000000000000000000000000000000000DA
:1006200000000000000000000000000000000000CA
:1006300000000000000000000000000000000000BA
:1006400000000000000000000000000000000000AA
:10065000000000000000000000000000000000009A
:10066000000000000000000000000000000000008A
:10067000000000000000000000008080804040205A
:100680002010080402040810102020404080800040
:10069000000000000000000000000000000000005A
:1006A000000000000000000000000000000000004A
:1006B000000000000000000000000000000000003A
:1006C000000000000000000000000000000000002A
:1006D000000000000000000000000000000000001A
:1006E00000000000000000000000003FC101010206
:1006F0000204844444428201010100000000000021
:100700008000004080804000003030000000000188
:100710000264180412C2CA2488F08080404040401D
:1007200020202020101010100808080804040404D9
:1007300002020202010101010000000000000000AD
:1007400000000000000000000000000000000000A9
:100750000000000000000000000000000000000099
:1007600000000000000000000000E018060100008A
:100770000C03000218190005FE80838340404040AE
:100780002021212010101010080808080404040477
:10079000020202020101010100000000000000004D
:1007A0000000000000000000000000000000000049
:1007B0000000000000000000000000000000000039
:1007C0000000000000000000000000000000000029
:1007D0000000000000000000808080804040404019
:1007E0002020202010101010080F08080404040412
:1007F00002020202010101010000000000000000ED
:1008000000000000000000000000000000000000E8
:1008100000000000000000000000000000000000D8
:1008200000000000000000000000000000000000C8
:1008300000000000000000000000000000000000B8
:1008400000000000000000000000000000000000A8
:100850000000000000000000000000000000000098
:100860000000000000000000000000000000000088
:100870000000000000000000000000000000000078
:100880000000000000000000000000000000000068
:100890000000000000000000000000000000000058
:1008A0000000000000000000000000000000000048
:1008B0000000000000000000000000000000000038
:1008C0000000000000000000000000000000000028
:1008D0000000000000000000000000000000000018
:1008E0000000000000000000000000000000000008
:1008F000000000808040404020202020201804027A
:100900000102040810202040408080000000000008
:1009100000000000000000000000000000000000D7
:1009200000000000000000000000000000000000C7
:1009300000000000000000000000000000000000B7
:1009400000000000000000000000000000000000A7
:100950000000000000000000000000000000000097
:10096000000000000000003FC10101020204040475
:1009700004020201000000000000000080000040AE
:1009800080804000003030000000000102040408B4
:10099000081020408080808040404040202020205F
:1009A00010101010080808080404040402020202CF
:1009B0000101010100000000000000000000000033
:1009C0000000000000000000000000000000000027
:1009D0000000000000000000000000000000000017
:1009E000000000000000E018060100000000000008
:1009F00000000000008083834040404020212120EF
:100A000010101010080808080404040404083040FA
:100A10008080000001869860000000000000000057
:100A200000000000000000000000000000000000C6
:100A300000000000000000000000000000000000B6
:100A400000000000000000000000000000000000A6
:100A50000000000080808080404040402020202016
:100A600010101010080F08080404040402040810F1
:100A700010202040404142241800000000000000E7
:100A80000000000000000000000000000000000066
:100A90000000010101000000000000000000000053
:100AA0000000000000000000000000000000000046
:100AB0000000000000000000000000000000000036
:100AC0000000000000000000000000000000000026
:100AD0000000000000000000000000000000000016
:100AE0000000000000000000000000000000000006
:100AF00000000000000000000000000000000000F6
:100B000000000000000000000000000000000000E5
:100B100000000000000000000000000000000000D5
:100B200000000000000000000000000000000000C5
:100B300000000000000000000000000000000000B5
:100B400000000000000000000000000000000000A5
:100B50000000000000000000000000000000000095
:100B60000000000000000000000000000000000085
:100B70000000808040404020100804020102040868
:100B800010204080800000000000000000000000F5
:100B90000000000000000000000000000000000055
:100BA0000000000000000000000000000000000045
:100BB0000000000000000000000000000000000035
:100BC0000000000000000000000000000000000025
:100BD0000000000000000000000000000000000015
:100BE0000000003FC10101020204040404020201EA
:100BF00001010000000000000000008000008000F3
:100C00000060600000010204040808101020204069
:100C10008080808040404040202020201010101014
:100C20000808080804040404020202020101010188
:100C300000000000000000000000000000000000B4
:100C400000000000000000000000000000000000A4
:100C50000000000000000000000000000000000094
:100C60000000C0300C030000000000000000000085
:100C70000080868640404040212222201111101021
:100C800008080808040404040408304080800000B8
:100C900001869860000000000000000000000000D5
:100CA0000000000000000000000000000000000044
:100CB0000000000000000000000000000000000034
:100CC0000000000000000000000000000000000024
:100CD0008080808040404040202020201010101054
:100CE000080F08080404040402040810102020401F
:100CF00040414224180000000000000000000000F5
:100D000000000000000000000000000000000101E1
:100D100001000000000000000000000000000000D2
:100D200000000000000000000000000000000000C3
:100D300000000000000000000000000000000000B3
:100D400000000000000000000000000000000000A3
:100D50000000000000000000000000000000000093
:100D60000000000000000000000000000000000083
:100D70000000000000000000000000000000000073
:100D80000000000000000000000000000000000063
:100D90000000000000000000000000000000000053
:100DA0000000000000000000000000000000000043
:100DB0000000000000000000000000000000000033
:100DC0000000000000000000000000000000000023
:100DD0000000000000000000000000000000000013
:100DE0000000000000000000000000000000808003
:100DF00080804040201008040204081020408080B9
:100E000000000000000000000000000000000000E2
:100E100000000000000000000000000000000000D2
:100E200000000000000000000000000000000000C2
:100E300000000000000000000000000000000000B2
:100E400000000000000000000000000000000000A2
:100E50000000000000000000000000000000007E14
:100E600082020204040808080804040201010000C8
:100E700000000000000000800000800000606000B2
:100E800001010204040808101020204080808080A6
:100E90004040404020202020101010100808080872
:100EA0000404040402020202010101010000000026
:100EB0000000000000000000000000000000000032
:100EC0000000000000000000000000000000000022
:100ED0000000000000000000000000000000C03022
:100EE0000C03000000000000000000000080868667
:100EF000404040402122222011111010080808080B
:100F000004040404040830408080000001869860D6
:100F100000000000000000000000000000000000D1
:100F200000000000000000000000000000000000C1
:100F300000000000000000000000000000000000B1
:100F400000000000000000000000000080808080A1
:100F5000404040402020202010101010080F0808AA
:100F600004040404020408101020204040414224DC
:100F70001800000000000000000000000000000059
:100F8000000000000000000000000101010000005E
:100F90000000000000000000000000000000000051
:100FA0000000000000000000000000000000000041
:100FB0000000000000000000000000000000000031
:100FC0000000000000000000000000000000000021
:100FD0000000000000000000000000000000000011
:100FE0000000000000000000000000000000000001
:100FF00000000000000000000000000000000000F1
:1010000000000000000000000000000000000000E0
:1010100000000000000000000000000000000000D0
:1010200000000000000000000000000000000000C0
:1010300000000000000000000000000000000000B0
:1010400000000000000000000000000000000000A0
:101050000000000000000000000000000000000090
:101060000000000000000000000080808080404000
:1010700020100804020408102040808000000000B6
:101080000000000000000000000000000000000060
:101090000000000000000000000000000000000050
:1010A0000000000000000000000000000000000040
:1010B0000000000000000000000000000000000030
:1010C0000000000000000000000000000000000020
:1010D000000000000000000000001C34C4040404F0
:1010E00008080808080404020101000000000000CC
:1010F000800000408080400000303000010102028A
:101100000404040808102040808080804040404053
:1011100020202020101010100808080804040404DF
:1011200002020202010101010000000000000000B3
:1011300000000000000000000000000000000000AF
:10114000000000000000000000000000000000009F
:1011500000000000000000000000E0180601000090
:1011600000000000000000000080838340404040F9
:10117000202121201010101008080808040404047D
:101180000408304080800000018698600000000064
:10119000000000000000000000000000000000004F
:1011A000000000000000000000000000000000003F
:1011B000000000000000000000000000000000002F
:1011C000000000000000000080808080404040401F
:1011D0002020202010101010080F08080404040418
:1011E0000204081010202040404142241800000052
:1011F00000000000000000000000000000000000EF
:1012000000000000000001010100000000000000DB
:1012100000000000000000000000000000000000CE
:1012200000000000000000000000000000000000BE
:1012300000000000000000000000000000000000AE
:10124000000000000000000000000000000000009E
:10125000000000000000000000000000000000008E
:10126000000000000000000000000000000000007E
:10127000000000000000000000000000000000006E
:10128000000000000000000000000000000000005E
:10129000000000000000000000000000000000004E
:1012A000000000000000000000000000000000003E
:1012B000000000000000000000000000000000002E
:1012C000000000000000000000000000000000001E
:1012D000000000000000000000000000000000000E
:1012E0000000008080404040202020202018040280
:1012F000010204081020204040808000000000000F
:1013000000000000000000000000000000000000DD
:1013100000000000000000000000000000000000CD
:1013200000000000000000000000000000000000BD
:1013300000000000000000000000000000000000AD
:10134000000000000000000000000000000000009D
:101350000000000000060D31C1010101020202047B
:1013600004020201000000000000000080000040B4
:1013700080804000003030000000000102040408BA
:101380000810204080808080404040402020202065
:1013900010101010080808080404040402020202D5
:1013A0000101010100000000000000000000000039
:1013B000000000000000000000000000000000002D
:1013C000000000000000000000000000000000001D
:1013D000000000000000E01806010000000000000E
:1013E00000000000008083834040404020212120F5
:1013F0001010101008080808040404040408304001
:10140000808000000186986000000000000000005D
:1014100000000000000000000000000000000000CC
:1014200000000000000000000000000000000000BC
:1014300000000000000000000000000000000000AC
:10144000000000008080808040404040202020201C
:1014500010101010080F08080404040402040810F7
:1014600010202040404142241800000000000000ED
:10147000000000000000000000000000000000006C
:101480000000010101000000000000000000000059
:10149000000000000000000000000000000000004C
:1014A000000000000000000000000000000000003C
:1014B000000000000000000000000000000000002C
:1014C000000000000000000000000000000000001C
:1014D000000000000000000000000000000000000C
:1014E00000000000000000000000000000000000FC
:1014F00000000000000000000000000000000000EC
:1015000000000000000000000000000000000000DB
:1015100000000000000000000000000000000000CB
:1015200000DA028178D9F1DB20A4A62EAF00A0C09A
:1015300000A1C800AED580A81FD300408D142000A4
:1015400064321420202020202020004341505300EA
:10155000FD377A585A000004E6D6B446020021014D
:1015600016000000742FE5A3E0051401AD5D003DF9
:101570008889C65436C3174FE4FBB7D0702676204F
:10158000CA1D9DF05678AFEDE53F3899FA712FF2FC
:10159000D70DD1B0AD26C2EFD861E7ADF468CC531A
:1015A000C240EB6858B8F37898A2ECFEE2962D8220
:1015B0001B4C6542ADEE933E7B15EBA0F7A9266E62
:1015C0008667404E27310FB6305D8F59F181D56661
:1015D000BC658495601039195890475EDC8F97027E
:1015E000B3E7AADE4F09216D4F2F4F90689E4370DD
:1015F0001023CBA9042C0FE23D4BEA7E8430E96A2C
:1016000018C159DDB519B768B1E3EF9DF9299C718F
:10161000251A9446DF339E40C7EEF6FC35ACC8BBB6
:10162000BE1AB6E4700F74CCC6095DECF08495CE9A
:101630000168C662ACF48E047649C7336B3AC3A71F
:10164000BEEE10D57155A35E39A2BC545ECB876D3A
:101650007B00F38AAFF817CA736C9704FE696FF3C7
:10166000FFB221923B93C0BD0FFA9E345851CE6118
:101670004EB2FC4494A42298D21B5777410C8FFEA3
:10168000A6E7FABD878589A07AA1B502F6EA14B665
:101690005AC5E09882B0A0DC3D0D38594AE5D79094
:1016A0003CCB926203377F17C9FF4D5726BC4A4D8A
:1016B0005408A7BF53AF2383E4332CC5FC772FB85E
:1016C0002E71893198061BD098083D7EC55AC98E67
:1016D0007581C669263390ADBF9B0AAF05630BDCED
:1016E00001114FABE86EA176533D0F2F2CE3DCECDC
:1016F000A3DC9F6431C69E7D5BDBDC5B4477AC245E
:101700004AE95B98362D91B2A2A4FD7355A387AC2C
:10171000EF0ABB779E8A1BEC543502C30000000021
:101720009A7895920B58BB730001C903950A000083
:1017300031751B35B1C467FB020000000004595A23
:101740000001010101010101010102020202020284
:101750000202020303030303030303040404040457
:10176000040405050505050606060606070707071E
:101770000708080808090909090A0A0A0B0B0B0CD3
:101780000C0C0D0D0D0E0E0E0F0F0F101011111170
:1017900012121313141415151616171718181919F1
:1017A0001A1A1B1B1C1D1D1E1E1F20202122222356
:1017B0002424252626272829292A2B2C2D2D2E2F97
:1017C00030313232333435363738393A3B3C3D3EAE
:1017D0003F404142434445464748494A4C4D4E4F9D
:1017E00050515354555658595A5B5D5E5F6162645F
:1017F000656668696B6C6D6F7072737577787A7BEC
:101800007D7E8082838587888A8C8E8F9193959642
:10181000989A9C9EA0A2A3A5A7A9ABADAFB1B3B562
:10182000B7BABCBEC0C2C4C6C9CBCDCFD1D4D6D83E
:10183000DBDDDFE2E4E7E9EBEEF0F3F5F8FAFDFFDC
:10184000A900AA00A900AA00A900AA004C001A0039
:1018500015001C000C00130030002B0016000900BE
:101860000B000E0033002002E1001D000600050001
:10187000100037000151E00002511700180012005B
:1018800050005100140008000A000D000F002F0046
:101890002800040007001900110036003400E5009C
:1018A00031001B002C002C002A0038004F00E30000
:1018B000E2000000015100005200A80029001F00B2
:1018C00021002300250027002E00E3003B003D00FF
:1018D0003F004100430045000100C25C01000100DF
:1018E0000100010001000100010022002400260087
:1018F000010001001E0020003E00400042002D00BB
:101900002A003A003C000100010001004400005C94
:101910000100C35C010001000100010001000100A1
:1019200001000000010000000100010001000100B1
:101930000100010049004600010001000100010012
:101940004A00010001000100010001000100010046
:10195000010001000100010001000100010001007F
:1019600001004E0001004D000100010001000100D6
:10197000010001004C000100010001000100010014
:10198000010001000100010001000100010001004F
:1019900001000000010000004B00010000AF00AE9C
:1019A0000000000000000000000000000000000037
:1019B0000000000000000000000000000000000027
:1019C000000000007E0F00D4FFFFFFC7000000787A
:1019D00000000000000000002A2B2800000000008A
:1019E00000000000000000000000002900000000CE
:1019F0002C1E3420212224342627252E362D37383C
:101A0000271E1F202122232425263333362E373844
:101A10001F0405060708090A0B0C0D0E0F10111202
:101A2000131415161718191A1B1C1D2F3130232DCE
:101A3000350405060708090A0B0C0D0E0F101112CC
:101A4000131415161718191A1B1C1D2F3130354C7D
:101A500009025B00030100A0FA0904000001030170
:101A6000010009211101000122400007058103083E
:101A70000001090401000203000000092111010016
:101A8000012222000705820320000107050303202D
:101A900000010904020001030000000921110100F6
:101AA0000122320007058403200001120100020018
:101AB000000008EDFE00000100010203011C037696
:101AC00000690061006C003A006600360034006373
:101AD00000320062003300630000001403760065EA
:101AE000007200640061006E00740030003200007B
:101AF000000C036B00720065006D006500000004BF
:101B000003090407087F0807003E5B4F5B3E003E69
:101B10006B4F6B3E001C3E7C3E1C00183C7E3C180C
:101B2000001C577D571C001C5E7F5E1C0000183C8B
:101B3000180000FFE7C3E7FF00001824180000FFAB
:101B4000E7DBE7FF0030483A060E00262979292610
:101B500000407F05050700407F05253F005A3CE710
:101B60003C5A007F3E1C1C0800081C1C3E7F0014D1
:101B7000227F2214005F5F005F5F0006097F017F04
:101B800000006689956A0060606060600094A2FF52
:101B9000A2940008047E04080010207E2010000893
:101BA000082A1C0800081C2A0808001E1010101023
:101BB000000C1E0C1E0C0030383E383000060E3E65
:101BC0000E060000000000000000005F00000000A2
:101BD0000700070000147F147F1400242A7F2A12B4
:101BE000002313086462003649562050000008079D
:101BF000030000001C224100000041221C00002ABA
:101C00001C7F1C2A0008083E080800008070300075
:101C100000080808080800000060600000201008A4
:101C20000402003E5149453E0000427F40000072E0
:101C300049494946002141494D33001814127F108B
:101C4000002745454539003C4A49493100412111A9
:101C5000090700364949493600464949291E00000E
:101C6000001400000000403400000000081422416D
:101C70000014141414140000412214080002015925
:101C80000906003E415D594E007C1211127C007F16
:101C900049494936003E41414122007F4141413E90
:101CA000007F49494941007F09090901003E41413E
:101CB0005173007F0808087F0000417F4100002029
:101CC00040413F01007F08142241007F40404040D6
:101CD000007F021C027F007F0408107F003E41410C
:101CE000413E007F09090906003E4151215E007F07
:101CF000091929460026494949320003017F010399
:101D0000003F4040403F001F2040201F003F403820
:101D1000403F006314081463000304780403006167
:101D200059494D4300007F41414100020408102001
:101D300000004141417F0004020102040040404094
:101D40004040000003070800002054547840007F02
:101D50002844443800384444442800384444287F08
:101D60000038545454180000087E09020018A4A436
:101D70009C78007F080404780000447D4000002027
:101D800040403D00007F102844000000417F40009B
:101D9000007C04780478007C08040478003844440B
:101DA000443800FC182424180018242418FC007C53
:101DB000080404080048545454240004043F4424F4
:101DC000003C4040207C001C2040201C003C403057
:101DD000403C004428102844004C9090907C0044E3
:101DE00064544C44000008364100000000770000B5
:101DF000000041360800000201020402003C2623D4
:101E0000263C00000000000000404040F0F8F8FFD1
:101E100038FFF8F83FF8F8FF38FFF8F8F040404096
:101E200000000000000080C0C0C0800000C0C08072
:101E300000000080C0C000C0C0000080C0C0000022
:101E4000000000C0C0C0C0C000C0C0000000000052
:101E50000000000000000000000000000000000082
:101E60000000000000000000000000000000000072
:101E70000000000000000000000000000000000062
:101E80000000C0F0F8FC3E1E06010000007F41414A
:101E9000417F007F4141417F000080C0E07E5B4F79
:101EA0005BFEC00000C000DCD7DEDEDED7DC00C099
:101EB0000000000000000000000000000000000022
:101EC000000000000000000000494949FFFFFFFF3B
:101ED000E0DFBFBF00BFBFDFE0FFFFFFFF494949B1
:101EE00000000000001F3F6060E0BF1F007F7F0711
:101EF0001E381E077F7F007F7F0E1F3B7160000032
:101F00000000007F7F0C0C0C007E7E007F7E0303B0
:101F1000007F7E03037E7E03037F7E000F3E703CC6
:101F2000063C703E0F00327B49493F7E007F7E03B6
:101F300003001E3F69696F260000000000000000DA
:101F40000000030F1F3F3C7870600000007F41419C
:101F5000417F007F4141417F00307B7F78302020EE
:101F600030787F3B0003000F7F0F0F0F7F0F0003C0
:101F70000000000000000000000000000000000061
:101F8000000000000000000000010101070F0F7FAA
:101F90000F7F0F0F7E0F0F7F0F7F0F0F07010101C4
:101FA000000000000000000000000101000000002F
:101FB0000000000000000000000000000000000021
:101FC0000000000000000000000000000000000011
:101FD0000000000000000000000000000000000001
:101FE00000000000000000000000000000000000F1
:101FF00000000000000000000000000000000000E1
:1020000000000000000000000000000000000000D0
:1020100000000000000000000000000000000000C0
:1020200000000000000000000000000000000000B0
:1020300000000000000000000000000000000000A0
:102040000000000011241FBECFEFDAE0DEBFCDBFDD
:1020500004B603FE18C080910A0590910B05A0916B
:102060000C05B0910D058730904BA740B04B59F44B
:1020700010920A0510920B0510920C0510920D0596
:10208000E0E0F8E3099511E0A0E0B1E0E2ECFEE663
:1020900002C005900D92A839B107D9F725E0A8E94B
:1020A000B1E001C01D92AA30B207E1F70E942629D3
:1020B0000C943B370C940000CF93DF9340910805BC
:1020C00050910905485053409A0124583D4F213002
:1020D0003240C0F020E032E0241B350B6091060353
:1020E00070910703FC01CA01240F351FC1E0D0E045
:1020F0008217930750F07093070360930603DF91F4
:10210000CF9108952CE732E0E9CF4491DC01A85F3C
:10211000BC4F5C91451781F04C93AC01A5E05695FE
:102120004795AA95E1F7DE0102C0AA0FBB1F4A95A9
:10213000E2F7AD016A2B752B01963196D9CFE8ED08
:10214000F0E080818E7F80831092E2001092DA00AE
:102150001092E100A0EEB0E08C9181608C938081C0
:102160008F77808319BCA7EDB0E08C918E7F8C9324
:1021700080818F7E80831092E10208952091E40097
:102180003091E50095E6A9012091EC00822F817045
:1021900020FF06C08091E80080FF06C080E008951F
:1021A0002091E80022FD1AC08091EF02882389F077
:1021B000853089F08091EB0085FD0FC02091E4000F
:1021C0003091E50042175307F9F29150E1F684E0AF
:1021D000089582E0089583E0089581E00895EF92E4
:1021E000FF920F931F93CF937C018B010E94BE102F
:1021F000C82F811117C08091E80085FD0BC0809128
:10220000E8008E778093E8000E94BE10882399F33F
:10221000C82F08C0F70181917F018093F100015020
:10222000110949F78C2FCF911F910F91FF90EF90DB
:1022300008958091F10287FF13C08091E80082FF2A
:1022400006C08091E8008B778093E80004C08091FD
:10225000EF028111F2CF08958091EF028823D9F324
:102260008091E80080FFF8CF8091E8008E77ECCF76
:10227000982F9093E900242F762F50E0891731F0A2
:102280007091EC002091ED005091F00021FD07C00D
:102290009F5F973071F78093E90081E00895309156
:1022A000EB003E7F3093EB003091ED003D7F3093AB
:1022B000ED003091EB0031603093EB007093EC0057
:1022C0002093ED005093F0002091EE0027FDE0CF29
:1022D00080E00895B0E0A0E0E0E7F1E10C947A330B
:1022E000C8EDD0E088818F7E8883E7EDF0E08081C3
:1022F0008160808384E082BF81E08093E1028881F5
:102300008E7F888302EE10E0F80110821092DA00CE
:1023100081EEC82ED12CF601108288818F778883B8
:1023200088818068888388818F7D888319BC10921A
:10233000EF021092F0021092EE021092ED0290EE77
:10234000E92EF12CF70180818B7F80838881816069
:10235000888342E060E080E00E943811F6018081CD
:102360008E7F8083F8018081816080838081886096
:102370008083F70180818E7F80838881806188835C
:10238000CDB7DEB7E8E00C949633FC018091F702FC
:102390009091F80286179707A0F06115710529F44E
:1023A0009091E8009E779093E80090E061157105A8
:1023B00051F4911108C08091E80082FF34C080E0A0
:1023C0000895BC01F2CF8091EF028823C1F18530DE
:1023D000C1F18091E80083FD30C08091E80082FD6A
:1023E000EACF8091E80080FFE1CF8091F300209157
:1023F000F200382F6115710519F02830310558F0B9
:1024000091E02830310509F090E02091E8002E7726
:102410002093E800CBCF81918093F1006150710946
:102420002F5F3F4FE7CF8091EF02882341F0853047
:1024300041F08091E80083FFBECF81E0089582E003
:10244000089583E008950895089508958091E40221
:1024500008952FB7F8946091DA027091DB028091B1
:10246000DC029091DD022FBF08952091D7023091B8
:10247000D8022817390771F09093D8028093D702B9
:10248000E091D502F091D602309721F00084F185D9
:10249000E02D099508952091D3023091D402281798
:1024A000390771F09093D4028093D302E091D50262
:1024B000F091D602309721F00680F781E02D099542
:1024C0000895E091D502F091D602309729F001905D
:1024D000F081E02D0995089580E00895FA018111B9
:1024E00001C0FB01099508958091F902982F9E7F04
:1024F00029F4817082608093F90208958031E8F3B5
:1025000081708E60F8CFAF92BF92DF92EF92FF9210
:102510000F931F93CF93DF93082F162FE901E42F1A
:10252000F0E0E05CF84E611110C0E4915E2F4E2F98
:102530004983E8835A83DF91CF911F910F91FF90D8
:10254000EF90DF90BF90AF900895E62EF12C44916C
:10255000D42EE42FF0E026E0829FC00111242FEF5B
:1025600030E0B9010E945C33802F90E0880F991F02
:1025700055E5569FD001579FB00D11248A1B9B0B28
:10258000982F990F890F5901AE18BF08AE9ED00140
:10259000AF9EB00DBE9EB00D11245B2F189F800121
:1025A0001124012F11275901A01AB10AAE9E8001F2
:1025B000AF9E100DBE9E100D11245901A81AB1082E
:1025C000AE9CC001AF9C900DBE9C900D1124892F34
:1025D0009927281B390B2E9FC0012F9F900D3E9FDE
:1025E000900D1124E92F62307105A1F050F46115AE
:1025F000710509F49DCF6130710581F0EB2F512FEA
:1026000097CF6430710569F080F06630710509F488
:102610008FCFF4CFE42F4B2F592F8ACFE42F412FA8
:1026200087CFEB2F542F492F83CF4B2F5D2DE12FD9
:102630007FCF80E00895F894E82FE295EF70F0E006
:1026400031A1282F2F7081E090E001C0880F2A95DA
:10265000EAF7982F9095932391A392A1892B82A3B7
:10266000789408959091090292FF06C0282F28714E
:102670002830F9F4877F846093FF06C0282F2871E3
:102680002831F1F4877E846120910A0220FF06C080
:10269000382F38713830D9F4877F816021FF06C028
:1026A000282F28712831D1F4877E816194FD877E9F
:1026B0000895282F24712430F9F68B7F8860DCCFB1
:1026C000282F2471243101F78B7E8861DDCF382FCC
:1026D0003171313019F78E7F8860E0CF282F21715A
:1026E000213121F78E7E8861E1CFCF93DF93EC011A
:1026F0008238910581F1D8F58133910509F498C0AC
:1027000020F58932910509F488C08A9709F497C0A9
:10271000C11521E5D20708F0B1C0C11530E5D307D6
:1027200008F0F9C0CF3BD10508F090C0C83AD105F8
:1027300008F0E6C0C53AD10508F0DAC0C430D105CA
:1027400020F5C130D10509F145C08533910509F463
:102750005FC0C997E9F680910902837009F029C129
:1027600080910A0283FF11C0C9E2D0E00EC0833E0F
:10277000910599F170F4803E910501F1823E910539
:1027800039F68091090282FD21C0CE01DF91CF91FF
:102790000895863E910561F1873E910571F1843E71
:1027A000910509F0B5CF80910A0281FFEECF8091AB
:1027B0000902C7EED0E084FD0DC0E7CF8091090289
:1027C00080FD33C090910A0290FFDFCFC3EED0E0CE
:1027D00084FFDBCFD0E0C0E0D8CF8091090282FD3A
:1027E000E5C090910A0290FDE4C084FFCECFF2CF05
:1027F0008091090283FDDDCFC8CF8091090283FD5E
:10280000DBC090910A0291FFF0CFC4EED0E0BDCFC3
:102810008091090285FFB9CFA7CF8091090285FD7C
:10282000CEC080910A0283FFB0CFC9E3D0E0ADCF24
:102830008091090286FFA9CFCAE2D0E0A6CF80919D
:10284000090286FFA2CFC1E3D0E09FCFC11540E2CD
:10285000D40760F4C11581E0D80708F096CFCE0107
:10286000805E9109089708F490CFB4CFC11520E499
:10287000D20708F4AFCFDF70D06A87CFC11534E537
:10288000D30778F4C11543E5D40708F06DC0C1152E
:1028900082E5D80708F054C0DC2FCC27C16FD06A7E
:1028A00074CFC1152AE5D20778F4C11539E5D307ED
:1028B00008F06EC0C11548E5D40708F48BCFDC2FB3
:1028C000CC27C06FD06A61CFCE019056811590425F
:1028D00008F080CF8D2F8F710E94321390E0982FD7
:1028E000882788279F719C012C2BE901D0624DCF4E
:1028F000C55AD0E0C75DDE4FC881D0E0D06445CF77
:10290000C85AD0E0CC0FDD1FC45DDE4F0990D881DE
:10291000C02DD4643ACF2C2F26952695237040E203
:10292000249F900111248C2F8370C1E0D0E002C05D
:10293000CC0FDD1F8A95E2F7C22BD32BDD6825CFA4
:10294000CE018370992721E030E002C0220F331FAF
:102950008A95E2F7C695C69580E2C89FE0011124EA
:10296000C22BD32BDC6811CFCE018370992721E0D5
:1029700030E002C0220F331F8A95E2F7C695C69554
:1029800040E2C49FE0011124C22BD32BDA68FDCEB4
:102990008C2F8F700E94321334E0D695C7953A95EC
:1029A000E1F7CF709C2FEC01D069EFCEC2EED0E002
:1029B000ECCEC0EED0E0E9CEC6EED0E0E6CEC5E388
:1029C000D0E0E3CE8091F3019091C201981301C051
:1029D00008958F5F8770FACFA82FA77023E0969590
:1029E00087952A95E1F7FC01EE0FFF1FE80FF91F0D
:1029F000E60FF71F50E040E080E0219130E00A2E22
:102A000002C0369527950A94E2F721703327042EE9
:102A100001C0220F0A94EAF7822B4F5F5F4F4330C9
:102A2000510559F70895903FC9F0983080F48730E8
:102A3000A8F4282F30E067EA71E0A901E7E09E9F43
:102A4000400D511D1124CA010E94EC1408959C5F91
:102A5000923020F464EA71E090E0F6CF80E00895CF
:102A6000262F277091E001C0990F2A95EAF723E0FD
:102A7000769567952A95E1F7FB01EE0FFF1FE60FAC
:102A8000F71FE40FF51F50E040E0682F70E08191E0
:102A9000DF0111979B01042E02C0369527950A94F9
:102AA000E2F7217021952827292328272C934F5FAF
:102AB0005F4F4330510559F70895282F862F903FD7
:102AC00079F0983070F4273058F4622F70E027E0E6
:102AD000929F600D711D112447EA51E00E9430154C
:102AE00008959C5F9230E0F7622F70E044EA51E075
:102AF000F5CF9C013A9521153F4150F5FC01EE2799
:102B0000F170BC0166277270AC01442754709C01BF
:102B10002227387094FF0EC080E1EF2B09F480E08B
:102B2000672B09F08062452B09F08064232B89F024
:102B30008068089581E0EF2B09F480E0672B09F0AD
:102B40008260452B09F08460232B19F0886008957A
:102B500080E00895809162028531F8F48091A301AC
:102B600090E0019665E070E00E94B3338093A3018A
:102B700024E030E0281B390B4CE752E0249FC001D1
:102B8000259F900D349F900D11248C54974F0E94D7
:102B90005C10089588E396E0FACF8832D8F38091EC
:102BA000A20190E00196817099278093A20121E013
:102BB00030E0281B390B4CE752E0249FC001259FD1
:102BC000900D349F900D1124805C9E4FE0CFB0E0BB
:102BD000A0E0EDEEF5E10C947A336C017B0164E644
:102BE00070E088E70E947632EC0197FD12C010E099
:102BF00000E0F601E00FF11F849164E670E00E94AE
:102C0000E232EC01892B29F40F5F1F4F0E151F05CF
:102C100081F70E945833CE01CDB7DEB7E8E00C94BF
:102C200096338091D1029091D202911103C091E02C
:102C300089270895882369F062E070E08EE999E1C0
:102C40000E94E715892B19F08091D1020895109206
:102C5000D1028091D102EBCFCF93C091D10280916C
:102C6000D2028823D1F00E94291260547B428E4FF9
:102C70009F4F6093CD027093CE028093CF029093CA
:102C8000D002C11108C062E070E08CE999E10E94B5
:102C9000E715892B29F0C091D1028C2FCF9108958F
:102CA00081E08093D102F7CFCF93DF93C0910805E5
:102CB000D09109058A30C1F42091FF02CE018850DD
:102CC0009340622F70E00E945C33281B822F66E0E5
:102CD0000E94A733C82FC15018F4DF91CF910895F7
:102CE00080E20E945416F7CF8D30E9F4C850D340EB
:102CF0002091FF02622F70E0CE010E945C33281BFE
:102D0000822F9E01280F311D2115324018F080E0DE
:102D1000D0E0C0E0C80FD11DC85FDC4FD0930905DB
:102D2000C0930805DACF96E0FE01A0E0B3E0019081
:102D30000D929A95E1F7803E08F458C086E0FE01B6
:102D400011928A95E9F7C0910805D091090546E0EE
:102D500050E0BE0180E093E00E944D349E01285077
:102D60003340892B41F1C90145E0969587954A95F5
:102D7000E1F741E050E0BA0102C0660F771F8A9583
:102D8000E2F7CB016091060370910703862B972B26
:102D9000B9016B5F7F4FE5E076956795EA95E1F7BE
:102DA00002C0440F551F6A95E2F7842B952B909330
:102DB0000703809306032A5F3F4F4091FF02642F71
:102DC00070E0C9010E945C33481B463010F4240FA8
:102DD000311D211572E0370710F030E020E0285F48
:102DE0003C4F309309052093080577CFF6E08F9F7D
:102DF000B00111246D5F744E46E050E0CE010E9498
:102E00003734A1CF8091E2029091FC01892B80930D
:102E10009A0148E050E064EF71E08AE991E00E9495
:102E20004D34892BA9F088E0EAE9F1E0A4EFB1E0A4
:102E300001900D928A95E1F7E091D502F091D602CA
:102E4000309731F00280F381E02D8AE991E0099515
:102E5000089590E080E00E944B1290E080E00E9494
:102E600035121092FC010E94021708958093FE0211
:102E70000E94291708958091FE02982F967096302F
:102E800021F488600E9436170895877FFBCF21E0E8
:102E900030E001C0220F8A95EAF720958091FE026A
:102EA00082230E943617089521E030E001C0220FEE
:102EB0008A95EAF78091FE02822B0E9436170895C8
:102EC0008093FD010E9429170895ECE9F1E086E066
:102ED000DF011D928A95E9F70E9429170895AAE259
:102EE000B0E0E5E7F7E10C947F3381EF92E02091C9
:102EF000F100DC012D93CD01B2E0893F9B07B9F7CA
:102F00008091F202833009F472C0B8F4813009F480
:102F100049C0823009F4B5C08091E80083FF98C2AF
:102F20008091F1029091F2029A3008F091C2E92F5B
:102F3000F0E0E35CF84C0C9408348A3009F490C05B
:102F40008B3009F471C0893039F78091F1028132F8
:102F500019F78091F5029091F602009711F002970F
:102F6000D9F68091E800877F8093E8008091E8009F
:102F700082FF38C09091F3008091F200029731F403
:102F80008091F100813011F0863021F48091F100C0
:102F90008093E4028091E8008B778093E8000E94A0
:102FA0001911BACF8091F102813A09F0B5CF809121
:102FB000E800877F8093E8008091F5029091F60207
:102FC000892B61F468E085EE92E070E00E94C51103
:102FD0008091E8008B778093E8009ECF60E090E0DE
:102FE00080E0F3CF8091EF028111C0CF95CF809127
:102FF000F102813A09F090CF8091F5029091F602AA
:10300000892B09F089CF8091E800877F8093E800C1
:103010008091E80080FFFCCF809117018093F10040
:103020008091E8008E77B9CF8091F102813209F06A
:1030300073CF8091F5029091F602892B09F06CCF45
:103040008091E800877F8093E8000E9419118091A9
:10305000F302809317011092E2020E9465175CCF81
:103060008091F102813209F057CF8091E800877F8B
:103070008093E8000E9419118091F4028093E3028A
:103080004BCF8091F102813A09F046CF8091E80060
:10309000877F8093E8008091E80080FFFCCF8091DB
:1030A000E302BCCF803899F0823809F0D1C1809119
:1030B000F5028F70873008F0CBC18093E9008091D2
:1030C000EB0085FB882780F91092E90006C080910B
:1030D000ED029091EE02911182609091E800977F4D
:1030E0009093E8008093F1001092F1008091E80045
:1030F0008E77AAC1882309F498C1823009F0A8C14B
:103100008091F30281119BC18091F5028F702FEFA6
:10311000280F263008F09CC18093E9002091EB0035
:1031200020FF8DC1933031F48091EB008062809359
:10313000EB0085C19091EB0090619093EB0021E052
:1031400030E001C0220F8A95EAF72093EA0010923E
:10315000EA008091EB008860EACF811179C110917B
:10316000F3021F778091E3008078812B8093E30046
:103170008091E800877F8093E8000E941911809178
:10318000E80080FFFCCF8091E30080688093E3003B
:1031900082E0111183E08093EF025AC1805882309F
:1031A00008F056C12091F3023091F4022C3DE3E087
:1031B0003E07A1F583E08A838AE289834FB7F894BA
:1031C000DE01139620E03EE051E2E32FF0E0509361
:1031D0005700E49120FF03C0E295EF703F5FEF706E
:1031E0008E2F90E0EA30C0F0C7968D939D932F5FAD
:1031F000243159F74FBF8091E800877F8093E80022
:103200006AE270E0CE0101960E94C5118091E8004B
:103210008B778093E8001CC1C096E7CF8091F502C0
:103220009091F602432F55274330510509F44AC0C7
:1032300078F54130510509F485C08BE590E0E0E573
:10324000FAE14230510509F003C12091E800277FDF
:103250002093E8002091F7023091F802821793073B
:1032600008F49C0140E02115310509F070C04111BE
:103270006EC08091E80082FDC9CF8091EF02882363
:1032800029F2853019F28091E80083FFF2CFBECF9A
:103290004132510509F447C04232510509F0D8C006
:1032A0008330910508F0D4C0FC01EE0FFF1FE457F6
:1032B000FE4F0190F081E02D87579E4FDC018C91ED
:1032C00090E01DC0332721303105E9F0211531058B
:1032D00079F022303105F9F02330310509F0B8C01A
:1032E000EDEBFAE1E4918E2F90E0EDEBFAE107C00F
:1032F000EFEFFAE1E4918E2F90E0EFEFFAE1009723
:1033000009F4A6C0A2CFE1EFFAE1E4918E2F90E09C
:10331000E1EFFAE1F4CFEBEDFAE1E4918E2F90E0EA
:10332000EBEDFAE1ECCF8330910508F091C0880F06
:10333000991FFC01EE56FE4F0190F081E02D89E0CF
:1033400090E083CF82E190E0EBEAFAE17ECF8091DA
:10335000EF02882309F45ACF853009F457CF8091C2
:10336000E80083FD53CF8091E80082FD82CF8091F9
:10337000E80080FF78CF9091F3008091F200211552
:10338000310519F08830910550F041E0089709F0B7
:1033900040E08091E8008E778093E80064CF44910C
:1033A0004093F1003196215031090196E8CF8038E1
:1033B00009F04EC08091E800877F8093E8008091FB
:1033C000F0028093F10092CE811142C01091F3027D
:1033D0001230F0F58091E800877F8093E800109329
:1033E000F0020E941911112311F084E005C08091B0
:1033F000E30087FDFACF81E08093EF0242E061ECC9
:1034000081E00E94381142E261EC84E00E943811B0
:1034100042E261EC82E00E94381142E260EC83E01B
:103420000E9438118091EF0213C08091F302813025
:1034300079F481E0933009F080E08093EE021092FD
:10344000E9008091E800877F8093E8000E941911CD
:103450008091E80083FF0AC08091E800877F809315
:10346000E8008091EB0080628093EB00AA96E3E095
:103470000C949B33882341F080959091FC01892323
:103480008093FC010E9402170895882339F09091DF
:10349000FC01982B9093FC010E9402170895882349
:1034A00041F080959091E20289238093E2020E948C
:1034B00002170895882339F09091E202982B909397
:1034C000E2020E94021708958823C1F19CEF980F31
:1034D000913A78F4ECE9F1E09191891303C0DF01AE
:1034E00011971C9241E0E23AF407B1F70E940217EB
:1034F000089590E2980F983088F4877021E030E0CA
:10350000A90102C0440F551F8A95E2F7CA018095B0
:103510009091E20289238093E202E8CF9BE5980F25
:10352000933028F490E080E00E944B120895885A6E
:10353000873120F490E080E00E94351208950F93C7
:103540001F93CF93C82F882349F18CEF8C0F813ABA
:10355000B8F50CE911E082EA91E0F8012191C21777
:1035600009F121E0E23AF207C9F7EFEF80E0D80174
:103570009D918D01C91781F0EF3F19F4911101C0A0
:10358000E82F8F5F863099F7EF3F31F00E2E000C59
:10359000FF0BE656FE4FC2830E940217CF911F9188
:1035A0000F910895ECE9F1E02191C21303C0DF010E
:1035B00011971C928E179F07B9F70E940217D5CF5B
:1035C00080E28C0F883068F4C77021E030E001C0E1
:1035D000220FCA95EAF78091E202822B8093E202E1
:1035E000DBCFEBE5EC0FE33040F4F0E0E75DFE4FBE
:1035F000808190E00E944B12D1CFC85AC73170F63B
:10360000EC2FF0E0EE0FFF1FE45DFE4F8081918113
:103610000E943512C3CF8093DE027093E002609364
:10362000DF028091EF028430F9F48093E9008FEF9C
:103630009091E800815095FD06C095ED9A95F1F7BF
:1036400000008111F5CF8091E80085FF0DC050E0AA
:1036500040E063E070E08EED92E00E94EF10809118
:10366000E8008E778093E8000895BC0184E00E9412
:103670000B1B0895BC0183E00E940B1B0895CF93A0
:10368000DF93EC0181E08093E9008FEF9091E800F7
:10369000815095FD06C095ED9A95F1F700008111D6
:1036A000F5CF8091E80085FF14C050E040E068E06D
:1036B00070E0CE010E94EF108091E8008E77809339
:1036C000E80088E0FE01A5EEB2E001900D928A9537
:1036D000E1F7DF91CF91089581E08093E00080E2EF
:1036E0008093D8001092C9008FE19EE40197F1F712
:1036F00000C0000087E090EBDC0180930A05909306
:103700000B05A0930C05B0930D0588E19CE00FB666
:10371000F894A895809360000FBE90936000FFCF4F
:103720008091F90280FD0AC0E2EAF2E01182108283
:103730001282339652E0E93CF507C1F7229A35B17F
:103740003B7F25B124604FB7F89482EA92E0FC01F8
:103750005191CF0168E025B9000000C057FF35B98D
:10376000550F000000C000C000C035B900C06A9508
:1037700091F7F2E0893C9F0751F74FBF8FE594E046
:103780000197F1F700C000000895EF92FF921F9398
:10379000CF93DF93EC0182EAE82E82E0F82E10E06E
:1037A0008C8197014091FC026091FB02810F0E9485
:1037B00083121D5E83E0E80EF11C173F89F70E941B
:1037C000901B9A818C8190FF08C08F5F8C83DF9162
:1037D000CF911F91FF90EF9008958150F7CF1F93E5
:1037E000CF93DF93182FEB010E949F1A8FE99FE080
:1037F0000197F1F700C000002197C1F7812F0E94C7
:10380000641ADF91CF911F910895B0E0A0E0EBE042
:10381000FCE10C947733EC01A62E8AE0982E2881E7
:10382000222309F4B3C0213009F051C089818130CD
:10383000C1F48E010E5F1F4F8A816AE070E0893308
:1038400011F460E570E00E94EF1BE80121968A2DDB
:10385000815028F3EFE9FFE03197F1F700C0000055
:10386000F7CF823039F48E010E5F1F4F8A810E949C
:103870009F1AEBCF833039F48E010E5F1F4F8A8180
:103880000E94641AE2CF843011F02196DFCF2A81A2
:10389000229690E080E0AE014F5F5F4F2053330BE4
:1038A0002A30310548F0019788F2EFE9FFE03197BF
:1038B000F1F700C00000F7CF989EB001999E700DFF
:1038C0001124C901860F971F2981EA01E4CFE22F55
:1038D000F0E0E053F64EB490822F8695869586955B
:1038E00090E0FC01E054F64EE4902770F12C022E9B
:1038F00002C0F594E7940A94E2F731E0E322FF2452
:10390000FC01E055F64EC490D12C022E02C0D59495
:10391000C7940A94E2F7E1E0CE22DD24FC01E056F0
:10392000F64E049110E002C0159507952A95E2F72E
:1039300001701127E114F10419F081EE0E949F1A21
:10394000C114D10419F086EE0E949F1AF9E36AE0CF
:1039500070E0BF1202C060E570E08B2D0E94EF1B8B
:10396000C114D10419F086EE0E94641AE114F10426
:1039700019F081EE0E94641A0115110509F466CF51
:103980006AE070E08CE20E94EF1B60CFCDB7DEB73B
:10399000EBE00C9493331092E2020E9465172FEF34
:1039A00084E39CE0215080409040E1F700C000009B
:1039B00088E19CE00FB6F894A895809360000FBE54
:1039C00090936000FFCFCF93DF93C3E8D1E060E036
:1039D000CE010E9407372196C11584E0D807B9F7B8
:1039E000DF91CF9108950F931F93CF93DF93142FFF
:1039F000022F8330F0F461111CC094E0899FE00134
:103A00001124C958DE4F82E090E0442311F090E089
:103A100080E0632F8C0F9D1F0E94073783E090E0AA
:103A2000112311F081E090E0602F8C0F9D1F0E9408
:103A30000737DF91CF911F910F9108951F93CF9377
:103A4000DF93122F8330E0F46830D0F44730C0F4B5
:103A5000C42FD0E0CC0FDD1F9EE0699FC00DD11DAB
:103A6000112490E7899FC00DD11D1124632FCE0131
:103A700087960E940737612FCE0188960E940737EC
:103A8000DF91CF911F910895B0E0A0E0EAE4FDE15D
:103A90000C947333809015019090160181E090E0B2
:103AA000909316018093150180E4E82E88E1F82EAA
:103AB00092E4C92E98E1D92E0CE418E1712CE801AA
:103AC000612C14C0F50125913491452D662D872D6B
:103AD0000E941E1D82E0A80EB11C539487E058126C
:103AE000F1CF2E96639488E0681619F05E01512C90
:103AF000E9CFF7012591349141E060E0872D0E94E4
:103B0000F31CF6012591349140E060E0872D0E947E
:103B1000F31C84E0E80EF11C739484E0C80ED11C01
:103B200000591F4F83E07812CACF909216018092FD
:103B30001501CDB7DEB7EFE00C948F33CF93C82FCC
:103B40006FEF811164E783E290E00E9407376FEF27
:103B5000C11160EE84E290E00E9407376FEFC1115F
:103B60006CE785E290E00E940737CF91089580E0EE
:103B70000E949E1D60E086E290E00E9407370E944E
:103B8000441D0E94E31C81E00E949E1D0895FF9247
:103B90000F931F93CF93DF93F42E833040F5611181
:103BA00026C024E0829F8001112409581E4F82E024
:103BB00090E0442311F090E080E0800F911F0E947C
:103BC000F336C82FD0E0DC2FCC2783E090E0FF2035
:103BD00011F081E090E0800F911F0E94F3369E016A
:103BE000282BC901CDB7DEB7E5E00C94993390E0FE
:103BF00080E0F8CF0F931F93CF93DF93833030F59E
:103C0000683020F5473010F5C42FD0E0CC0FDD1F11
:103C10002EE0629FC00DD11D112430E7839FC00D9F
:103C2000D11D1124CE0187960E94F336082F10E093
:103C3000102F0027CE0188960E94F3369801282B7A
:103C4000C901DF91CF911F910F91089590E080E01D
:103C5000F8CF462F672F2091CB023091CC02232B37
:103C6000F9F4703F39F4403FD9F48091C902909142
:103C7000CA0208958330A0F4783028F4473080F4E5
:103C80000E94FA1D08957D3F39F4411109C041E0B9
:103C900060E00E94C71D08957C3F11F44423C1F3E6
:103CA00090E080E00895CF92DF92FF920F931F93F0
:103CB000CF93DF936C010091FE028091FD01082BF0
:103CC000C7E0D0E010E0FC2EC8010C2E02C0959594
:103CD00087950A94E2F780FD0CC02197A0F7F12C9C
:103CE0008F2DDF91CF911F910F91FF90DF90CF909B
:103CF0000895B6018C2F0E94291E0E94751301970A
:103D000061F3EECFCF93DF93EC010E94531EBE010F
:103D10000E94291E0E947513DF91CF910895FC0126
:103D200083819481892B29F08081918189238F3F20
:103D300051F480E00895843FE1F717C0883EA8F071
:103D4000813FB9F712C0808191810E94821E9295B5
:103D50009F70963099F358F4925F9F70923048F7B5
:103D6000803F19F040F7883E20F781E008959A5F80
:103D7000F4CF83E290E00E94F336843789F484E242
:103D800090E00E94F336803E59F485E290E00E9474
:103D9000F33691E08C3709F090E0892F8170089517
:103DA00080E0FCCFCF92DF92EF92FF926B017C011B
:103DB0000E947412B701A60188E090E00E941937B2
:103DC000FF90EF90DF90CF900895A3E0B0E0EBEE8E
:103DD000FEE10C947C33182FF62E042FE22E8091F6
:103DE000F90280FF36C0E82FE695F0E0EF57FE4F6E
:103DF00090819093A0028E7F823079F59E012F5F93
:103E00003F4F812F0E9483128091F90280FF0FC0E3
:103E10008B8199812A81E2EAF2E021839083828377
:103E2000339632E0E93CF307C1F70E94901B1093F0
:103E3000FA02F092FB020093FC02EE2051F0609136
:103E4000F9027091FA028091FB029091FC020E94AB
:103E5000D21E2396E6E00C949833923041F71091ED
:103E6000FA02E5CFE9EFF2E0438128E0421B08F4D3
:103E700040E021E0628181810E94E51E0895E9EF22
:103E8000F2E0438128E0420F08F44FEF21E0628125
:103E900081810E94E51E0895E9EFF2E0628128E049
:103EA000621B08F460E021E0438181810E94E51EED
:103EB0000895E9EFF2E0628128E0620F08F46FEF05
:103EC00021E0438181810E94E51E0895E9EFF2E03F
:103ED000818121E04381628188500E94E51E08951E
:103EE000E9EFF2E0818121E043816281885F0E94F5
:103EF000E51E08958091FD02882319F0815080937A
:103F0000FD026091F9027091FA028091FB0290919A
:103F1000FC020E94D21E08958091FD02833018F4A5
:103F20008F5F8093FD026091F9027091FA02809197
:103F3000FB029091FC020E94D21E0895E9EFF2E08C
:103F400083E0808311828FEF828383831482608178
:103F50007181828193810E94D21E089568EE7EEF66
:103F600090E080E00E94253760E082E090E00E94CF
:103F7000073760E083E090E00E9407371092FD0170
:103F800060E084E090E00E94073764E082E290E025
:103F90000E94073760E085E090E00E94073760E00C
:103FA00086E090E00E9407376FEF87E090E00E9484
:103FB000073740E050E0BA0188E090E00E941937EE
:103FC00060E08DE090E00E94073740E050E0BA01E9
:103FD00088E190E00E94193760E087E190E00E945C
:103FE000073740E050E0BA018CE190E00E941937B9
:103FF00070E060E080E290E00E94253740E050E011
:10400000BA0188E190E00E94193780E00E949E1D6D
:104010000E94B71D40E050E0BA018FE090E00E949E
:10402000193740E050E0BA0183E190E00E9419376F
:10403000089590E080E00E940137883E9E4F19F479
:104040000E94B91E089580E008951F920F920FB646
:104050000F9211242F933F934F935F936F937F930E
:104060008F939F93AF93BF93CF93DF93EF93FF9380
:10407000D091E900DF708091EC00C82FC17080FD05
:10408000C0E81092E9008091F000877F8093F000F3
:1040900078940E946F171092E9008091F000886078
:1040A0008093F000CD2BCF70C093E900FF91EF918A
:1040B000DF91CF91BF91AF919F918F917F916F9140
:1040C0005F914F913F912F910F900FBE0F901F90D6
:1040D00018951F920F920FB60F9211242F933F93B2
:1040E0004F935F936F937F938F939F93AF93BF9300
:1040F000EF93FF938091E10082FF09C08091E2007D
:1041000082FF05C08091E1008B7F8093E100809168
:10411000DA0080FF24C08091D80080FF20C0809109
:10412000DA008E7F8093DA008091D90080FF9DC0F5
:1041300080E189BD82E189BD09B400FEFDCF81E047
:104140008093EF028091E102811109C00E949F10CB
:104150000E946A118091E20084608093E200809165
:10416000E10080FF17C08091E20080FF13C08091C2
:10417000E2008E7F8093E2008091E2008061809374
:10418000E2008091D80080628093D80019BC85E05D
:104190008093EF028091E10084FF2BC08091E200C8
:1041A00084FF27C080E189BD82E189BD89B5982F50
:1041B000917080FFFBCF8091D8008F7D8093D800D5
:1041C0008091E1008F7E8093E1008091E2008F7EFC
:1041D0008093E2008091E20081608093E200809110
:1041E000F002882309F447C084E08093EF028091B5
:1041F000EF028091E10083FF27C08091E20083FFFE
:1042000023C08091E100877F8093E10082E080936A
:10421000EF021092F0028091E1008E7F8093E10026
:104220008091E2008E7F8093E2008091E2008061C5
:104230008093E20042E060E080E00E9438118091CB
:10424000F00088608093F000FF91EF91BF91AF91F3
:104250009F918F917F916F915F914F913F912F919E
:104260000F900FBE0F901F90189519BC1092EF027F
:104270001092E10274CF8091E30087FD93E0909368
:10428000EF02B5CF78941F921FB61F9211248F931F
:104290009F93AF93BF938091DA029091DB02A0913C
:1042A000DC02B091DD020196A11DB11D8093DA02FE
:1042B0009093DB02A093DC02B093DD02BF91AF913B
:1042C0009F918F911F901FBE1F9018959C014FB713
:1042D000F8948091DA029091DB02A091DC02B09117
:1042E000DD024FBF821B930B08952FB7F894809186
:1042F000DA029091DB02A091DC02B091DD022FBFC7
:1043000008956091F902669570E041E050E084E123
:1043100091E00E944034892B19F481E08093A1023E
:104320000E94752190939B0280939A020895909128
:10433000F90290FF2CC0917081112AC09260909375
:10434000F902662351F06091F9027091FA028091AE
:10435000FB029091FC020E94D21E6091F9026695C8
:1043600070E041E050E084E191E00E944034892B0C
:10437000B1F01092A10281E080939D0220E0409173
:10438000FC026091FB028091FA020E94E51E0895F2
:10439000883010F09E60D3CF880F982BD0CF0E942A
:1043A0008121E9CF8091F9028695815009F487E057
:1043B00061E00E94972108958091F90286958F5FB0
:1043C000883008F081E061E00E9497210895809193
:1043D000F90280FF08C0869582588F77853018F4DF
:1043E0000E94DC21089561E082E00E9497210895F7
:1043F000A5E0B0E0EEEFF1E20C9479336C01FC0142
:1044000083819481892B31F08081918189238F3F31
:1044100009F088C32596E9E00C9495330E94531E59
:10442000182F682F89819A810E945D1569817A8190
:10443000812F0E94291E8C01F6012281222309F47A
:1044400066C390568115F0E29F0750F0905E81158B
:1044500030E1930728F0915C81159F4108F065C019
:10446000C8019927AC01445051094432510518F054
:104470008B970E9780F4E0911F02F0E0EE0FFF1F84
:10448000EC5DFD4F808191818F3F5FE7950719F0CB
:10449000019691838083C80182519F45409708F01F
:1044A000E4C28FEF93E00E94F3368111B3CF9EEE0A
:1044B000F92EF00E03E811E0F11040C019821A82C3
:1044C0001B821C82BB24BA9478019FEFE91AF90A77
:1044D000C8010E94F33689831A82882309F49ACF8F
:1044E000813009F093C06801E2E0CE0ED11CC70113
:1044F0000E94F336E82E8A83882309F48BCFC60105
:104500000E94F336F82E8FEF8E0D833028F5680168
:10451000F3E0CF0ED11CFB82FF2029F060E0CE013A
:1045200001960E94051C8601CFCF90E080E00F3FEE
:10453000110511F008F096CFC80194CF011584E061
:10454000180709F467CFC8010E94F336811101C032
:10455000FA940F5F1F4FB0CF8BEF8E0D833070F545
:10456000C8010396FB826C01FF20E9F2680124E098
:10457000C20ED11C0E94F3368C838823A1F20B81DA
:104580001C8101303FEF130710F0102F002746E089
:10459000E41681F057E0E51649F0C8010E9418289A
:1045A0008FE39CE90197F1F700C00000C8010E9469
:1045B000E027B9CFC8010E941828B5CF94E0E912CE
:1045C000B2CF6801E4E0CE0ED11CC80103960E9470
:1045D000F336FF2009F41ECF882309F41BCF815046
:1045E000990BB89E9001B99E300D11244F2D41506A
:1045F000550BCA01820F931F019708F494CFEFE97E
:10460000FFE03197F1F700C00000F6CF6AE0CE017D
:1046100001960E94051C670186CF81E00E94541715
:1046200003C081E00E9447170E943B17F3CE22236C
:1046300009F476C282E0F2CF073C4CE5140709F496
:1046400072C008F46BC0083C9CE5190709F470C0FF
:1046500042E35FE16FE37FE1093CECE51E0709F00F
:104660002DC20E946E12D6CE003DFCE51F0778F4E5
:104670000E3C2CE5120708F0CDCE0C3C3CE51307B0
:1046800009F465C008F45EC061E081E035C0063D14
:104690005CE5150740F4013D8CE5180708F0BACE3B
:1046A0000E94E721B7CE0D35100709F4B3CE06C23C
:1046B0008091F90280FF1BC08E7F8093F902609188
:1046C000F9027091FA028091FB029091FC020E9423
:1046D000D21E1092A102EFEFF0E722E0E150F0408D
:1046E0002040E1F700C000000E94901B93CE816043
:1046F0008093F90261E086950E9497218BCE42ED6E
:1047000051E26CED71E2ADCF4CED51E262ED71E240
:10471000A8CF46E65FE160E77FE1A3CF40E75FE136
:1047200066E67FE19ECF4CE45FE169E57FE199CFEA
:1047300049E55FE16CE47FE194CF4FE35FE162E341
:104740007FE18FCF4AE75FE16CE87FE18ACF4CE8F9
:104750005FE16AE77FE185CF0E3D3CE51307B9F0E5
:10476000073A4DE51407A9F001151C4509F0A6C14B
:104770001092E2020E9465178FEF94E3ECE0815003
:104780009040E040E1F700C000000E946C1B0E94D6
:10479000AE1F0E94CB1C0E941315F82E9DC1092F3D
:1047A0000F70907F11F00295007F812F2223C9F0B6
:1047B000002369F090E2910F983010F011110BC0B6
:1047C0008091E202082B0093E2020E940217812FDF
:1047D0000E949F1A17C08091FC01082B0093FC01D6
:1047E000F4CF0E94641A002369F00095105E18301F
:1047F00010F0B11012C08091E20208230093E2028F
:104800000E94021798E0E91AF108E4E0EE16F104BC
:1048100008F000CE0E946112FDCD8091FC010823BA
:104820000093FC01EDCF892F8F70907F903211F0B3
:104830008295807FF1E0BF120CC0222329F0363030
:1048400008F70E945A1ADECF3530E0F60E944F1A60
:10485000D9CF222341F03323A1F340FFB8CF4F70CB
:10486000F6014583EECF332389F3193309F0F5C000
:10487000FFEF27EE33E0F15020403040E1F700C079
:104880000000812F0E94641ABDCF892F86958695DE
:10489000837061F0813009F0B5CF812F93702111C1
:1048A00002C090E080E00E943512ACCF812F93705F
:1048B000211102C090E080E00E944B12A3CF892F0B
:1048C0008370A1F521119ECF812F829586958770E7
:1048D000880F880F412F4F70082E01C0440F0A9493
:1048E000EAF7212F207114FF07C02FE030E001C04C
:1048F000220F8A95EAF720959695969593709230B7
:1049000081F0822F842B933030F48091FD0191301F
:1049100029F0242B82230E94601774CF842B822BD2
:10492000FACF242B8091FD018227F5CF8695222393
:1049300011F0892F8170882309F464CF812F82952B
:1049400086958770880F880F412F4F70082E01C001
:10495000440F0A94EAF7212F207114FF07C02FE0BB
:1049600030E001C0220F8A95EAF72095969596953A
:104970009370923081F0822F842B933030F48091A9
:10498000FE02913029F0242B82230E9436173ACF61
:10499000842B822BFACF242B8091FE028227F5CF25
:1049A000092F0F70222329F0802F0E945417812F86
:1049B00048CF812F0E944F1A802F0E94471722CF85
:1049C000812FE1EF1E1789F1E11750F0F0EF1F176B
:1049D000B9F02223B1F13111FACE892F8F7129C09C
:1049E00042EF141749F153EF1513F3CF80E0222360
:1049F00061F29F7181E001C0880F9A95EAF7C5CFF7
:104A0000222379F0353008F0FDCE292F2F7181E077
:104A100090E001C0880F2A95EAF79091FE0289275D
:104A2000B4CF363008F0EECEF0CF892F8F7122232D
:104A300021F20E945417E6CE892F8F712223C9F3E9
:104A4000BCCF332379F0893341F48FEF97EEE3E065
:104A500081509040E040E1F712CF8FE39CE901974D
:104A6000F1F70DCF892F8F71A8CF0031FFE51F0718
:104A700009F4D3CD01313FE5130709F4D8CD211155
:104A80006BCE8091E20282720A3C3CE5130709F486
:104A900054CE08F0E9CD053C5CE5150709F439CEA4
:104AA00008F0CACD033CECE51E0709F428CE08F057
:104AB0002BCE023C3CE5130709F4FACDF601008148
:104AC0001181C801222309F466CE0E94531EF82EDC
:104AD000682FC8010E945D15B8018F2D0E94291E04
:104AE0000E947513182FB82EF60122814581342FAC
:104AF00032953F70892F82958F70E82EF12C8C3083
:104B000008F080CEF701E95BF84C0C940834803152
:104B10004FE5940709F485CD81319F4509F0B1CF68
:104B200082E080CD85E0DE01119601900D928A959C
:104B3000E1F7F601228189819A8121116FCC0E94CF
:104B40001315182F73CC1F93CF93DF938091C1015E
:104B5000807F09F049C08091BE01882309F444C0D8
:104B60008091F301D091C2016091BC017091BD01AF
:104B7000A091BF01B091C001C62FC72316E0D8177E
:104B800099F190E0109711F0CF3F19F401968770DA
:104B9000F6CF189F9001199F300D1124F901ED53A4
:104BA000FE4F41814713F2CF40814613EFCF428140
:104BB0004111ECCF438154814A1B5B0B483C5105AA
:104BC00028F78091C1018F7080618093C101F90144
:104BD000E853FE4F80818F70806180838CEB91E081
:104BE0000E94F8210E94E214DF91CF911F91089555
:104BF000A1E1B0E0EEEFF5E20C9478338C0185E0B2
:104C0000F801DE011D9601900D928A95E1F7F801F9
:104C1000E2808CEBA82E81E0B82E6091BF017091EC
:104C2000C0016115710509F426C19091BC01409144
:104C3000BD01892F84238F3F09F41DC1208131815B
:104C4000C380D480F090BE01F601E61BF70BFF2075
:104C500009F4DCC08091C101582F507FE83CF10578
:104C600008F09FC051116BC0FE2C431314C0921367
:104C700012C0E11010C08F7080618093C101C50126
:104C80000E94F8218091C101F80185838F2D6196E2
:104C9000EAE00C949433C114D10429F0822F8323C9
:104CA0008F3F09F003C180E0F82FF170DF2E80FF05
:104CB0003CC08091F3014091C20156E0841315C0BD
:104CC0002D873E878D859E850E94821E292F2295E5
:104CD0002F702230F0F0243018F59F70F1F0F801B9
:104CE0009581907FD1F4D12C1EC090E0589FF001A7
:104CF000599FF00D1124ED53FE4F6181361306C00C
:104D00006081261303C06281E6120FC0019687708E
:104D1000D5CF9F7011F0882331F3805E883018F36F
:104D2000C8010E94F821FD2CB1CFEE2009F4AECFCE
:104D30008091C10181608093C101F12CA7CF431301
:104D400006C0921304C0F801EE2009F479C0C8012E
:104D50000E948F1E882309F1EE20F9F08091C10195
:104D6000803270F02091BC013091BD0138872F83D3
:104D70001986DB86CA868C87CE0107960E94F821A9
:104D800086E0F801ACEBB1E001900D928A95E1F775
:104D90000E94A325FF24F39479CFC8010E94F82133
:104DA000F9CF51110AC08CEB91E00E94F82186E006
:104DB000F50111928A95E9F7C0CF43130FC0921302
:104DC0000DC0E1100BC0F8018583C8010E94F821D5
:104DD00086E0F50111928A95E9F758CFC8010E9443
:104DE0008F1E8823D1F2EE20C1F28091C101803262
:104DF00038F22091BC013091BD013A8329831B8296
:104E0000DD82CC828E83CE010196B8CFE83CF105DD
:104E1000F8F6FE2CEE2009F243131FC092131DC0BA
:104E20008091C10180FD10C0982F907F69F0F8013A
:104E30008583903F31F0982F907F905F8F70892B02
:104E40008583C8010E94F82186E0F801ACEBB1E04F
:104E500001900D928A95E1F719CFC8010E948F1E2B
:104E600081118ECF8091C10181608093C101C80101
:104E70000E94F8210BCFEE2009F48FCFC8010E94C9
:104E80008F1EF82E882309F488CF86E0F801ACEB5A
:104E9000B1E001900D928A95E1F78091BC0190916B
:104EA000BD010E94821E0E94A325F0CE81E08E25C6
:104EB000FBCEA7E1B0E0EFE5F7E20C947F334B8B3C
:104EC0005C8B6D8B7E8B8F8B61111092FC011A8A2B
:104ED000198A85E0FE017396DE011D9601900D9200
:104EE0008A95E1F786E0FE013D96DE011796019076
:104EF0000D928A95E1F7CE0107960E94F825882346
:104F000059F016E08091F3019091C201891345C0D8
:104F10006796E3E00C949B3386E0FE013796DE0152
:104F2000119601900D928A95E1F78A859B85892BD0
:104F300041F38F81988589238F3F19F32091C20116
:104F400030E0C9010196877099274091F301481715
:104F5000190681F41092E2020E9465171092C201B4
:104F60001092F30186E0ECEBF1E0DF011D928A95EF
:104F7000E9F7C7CF96E0929FD001939FB00D11241F
:104F8000AD53BE4FFE01319601900D929A95E1F717
:104F90008093C2010E94E214B4CF819FC00111240A
:104FA0008D539E4F0E94F825882309F4B1CF80913C
:104FB000F30190E00196877099278093F301A2CFC7
:104FC000A5E0B0E0E6EEF7E20C947E338C0190931E
:104FD000CA028093C902011580E21807C0F4802F2D
:104FE0000E94641AC8010E9479159801205E310957
:104FF0002830310518F00115110531F40E944F1ABF
:105000002596E4E00C949A330E943A1AF9CF80EF87
:1050100089838A831B820E9475218160782F9D83FA
:105020008C8349815A816B818D810E945927E8CFF9
:10503000A5E0B0E0EEE1F8E20C947E338C019093B1
:10504000CA028093C902011580E21807C0F4C801A2
:105050000E9479159801205E31092830310518F039
:105060000115110549F40E945A1A802F0E949F1AB7
:105070002596E4E00C949A330E94451AF6CF80EF0F
:1050800089838A8381E08B830E9475218160782FD8
:105090009D838C8349815A816B818D810E94592720
:1050A000E7CFA8E0B0E0E7E5F8E20C9477338E01B3
:1050B0000F5F1F4F88E0F80111928A95E9F78AE5A2
:1050C000C82E81E0D82EF12CE12CAA24A394B12C77
:1050D000F60181916F018F3F09F443C0F894E82FE6
:1050E000E295EF70F0E021A18F70A50102C0440F9E
:1050F000551F8A95E2F7CA01922F982B91A392A18E
:105100008095892382A3789400C0E2E6F1E0912C97
:1051100031E021912F3F09F465C0A22FA295AF7015
:10512000B0E090968C9190E02F7002C09595879595
:105130002A95E2F780FD56C0832F982A330F51E05D
:10514000E936F50731F7F601319780818F3F11F08D
:105150000E941B1380EA8A95F1F7F801EE0DFF1DFE
:105160009082EFEFEE1AFE0AF8E0EF16F10409F074
:10517000AFCF48E050E0B80181E092E00E944D34AA
:10518000892B91F188E0F801A1E0B2E001900D9245
:105190008A95E1F781E0809300020E947521909347
:1051A000FF018093FE018091FE019091FF010E941A
:1051B00066210597E8F048E050E061E072E082E99E
:1051C00092E00E944D34892BC1F088E0E1E0F2E0EA
:1051D000A2E9B2E001900D928A95E1F781E0109288
:1051E000000207C080E0A9CF809100028111DBCFCF
:1051F00080E02896EBE00C94933380E0F0CF1F9290
:105200001FB61F9211248F939F93AF93BF938091EA
:10521000D902811113C08091DA029091DB02A09132
:10522000DC02B091DD024196A11DB11D8093DA022E
:105230009093DB02A093DC02B093DD02BF91AF91AB
:105240009F918F911F901FBE1F901895CDB7DEB70D
:10525000CA54D1090FB6F894DEBF0FBECDBF85B7D3
:10526000806885BF85B7806885BF84B7877F84BF26
:105270000FB6F894A89580916000886180936000D3
:10528000109260000FBE80E890E00FB6F894809313
:105290006100909361000FBE89E193E190939901C1
:1052A000809398010E949F100E946A118091E200F1
:1052B00084608093E20078948091EF028823A1F0CB
:1052C0001091E9001F709091EC00892F817090FD82
:1052D00080E8182B1092E9008091E80083FD0E947D
:1052E0006F171F701093E90082E084BD93E095BDB5
:1052F0009AEF97BD80936E000E94B91E811102C083
:105300000E94B71D0AE511E0F2E6EF2EF1E0FF2E54
:10531000D8018D918D018F3F11F00E941B13E01673
:10532000F106B1F702E611E0E9E6EE2EE1E0FE2E2D
:10533000F80181918F018F3F11F00E941B13E0163D
:10534000F106B1F788E0E2E9F2E0DF01282F1D92D3
:105350002A95E9F7E1E0F2E0DF011D928A95E9F78D
:105360000E941920811102C00E94AE1F82E090E0CD
:105370000E94F3368093100284E090E00E94F3369E
:10538000182F82E290E00E94F336982F812F90939D
:105390000A02809309020E945128BFEFE6E7F1E07C
:1053A000B150E040F040E1F700C000000E945128F9
:1053B0008091920280FF08C06FEF7FEF90E080E065
:1053C0000E9425370E946C1B83E090E00E94F33618
:1053D0000E94601782E080938D0280E88093FF0234
:1053E0000E9470326DE070E083E395E10E94E71562
:1053F000892BE9F580918D0263E070E081FD10C199
:1054000080E395E10E94E715892B89F56DE070E056
:1054100080E295E10E94E715892B49F50E94291247
:1054200060547B428E4F9F4F6093CD027093CE02AB
:105430008093CF029093D002E8E0F3E080E092E026
:10544000DF019C011D9221503040E1F7F0930905E6
:10545000E09308058FEF9FEF909307038093060377
:1054600081E08093D2028093D10210928E028091CB
:105470000B02811133C00E941920811104C00E94C7
:10548000AE1F0E949E1F88E090E00E94FB36609352
:10549000F9027093FA028093FB029093FC026E7FF4
:1054A00071F40E949E1F88E090E00E94FB3660939A
:1054B000F9027093FA028093FB029093FC020E941F
:1054C00074121092A1028091F90280FF04C060E082
:1054D00086950E94972181E080930B0281E0809362
:1054E00058022098289A55985D9A8FE891E0019784
:1054F000F1F700C000002091580249E552E0FA019E
:105500008E2F841B821708F48EC080E091E0909368
:10551000D6028093D5028091EF02853011F570E4B8
:10552000F72EEE24E39400E112E18091EF02853042
:1055300009F483C01092E2020E9465170E94611272
:1055400010920D0280910C02882349F08091F9029B
:1055500081608093F90260E086950E9497210E9405
:1055600081210E94512851E1E52E52E0F52E62E999
:10557000262E62E0362E29E132E0D101F701919129
:105580008D912E173F0709F4B0C09817C1F342E977
:10559000C42E42E0D42E10E0D6010D916D01F7012A
:1055A00091907F01901699F19026B12CAA24A39492
:1055B000892D8A2121F12396BFAE239724961FAF10
:1055C000249791E0802F8A2109F490E025969FAFDF
:1055D00025970E9475218160782F27969FAF8EAF07
:1055E000279723964FAD239724965FAD2497259652
:1055F0006FAD259727968FAD27970E945927B394B3
:10560000AA0CF7E0BF12D4CFF701319700831F5FD8
:10561000183009F0C1CF0E942912EE24E3948AC009
:105620008DE295E1EFCE83B181704D9904C090E099
:10563000892B819365CF92E0FBCF8091EF0284307C
:1056400009F441C01092A10280910D02811116C08F
:10565000E0920D028091F902982F917090930C02C4
:105660008E7F8093F9029FEFA0E7B2E09150A040B7
:10567000B040E1F700C000000E94901B0E9411168C
:105680001092D902E8E1F0E00FB6F894A895E09303
:1056900060000FBEF092600083B7817F846083BF9B
:1056A00083B7816083BF7894889583B78E7F83BFEB
:1056B0000FB6F894A895809160008861809360008F
:1056C000109260000FBE8091EE02882309F42DCF66
:1056D0000E945128E2E9F2E081918111E0C62AE9B5
:1056E00032E02E173F07C1F720CF981350CF0E940A
:1056F00075218C0180910E0290910F0208171907F5
:10570000C1F08FEF8DAF8EAF1FAE0E94752181600B
:10571000782F22969FAF8EAF22974DAD5EAD6FADC5
:1057200022968FAD22970E94592710930F02009363
:105730000E02E12C8090240290902502092C000C8E
:10574000AA08BB0880910C0190E0E4E2F2E021E0BD
:1057500030E03296821793070CF0FEC08091200251
:1057600090912102A0912202B09123022FB7F894C8
:105770004090DA025090DB026090DC027090DD0213
:105780002FBF481A590A6A0A7B0A10910C0129ECAA
:10579000421651046104710414F180911F0290E0DB
:1057A000019669E170E00E94B33380931F02880F75
:1057B000991FFC01EC5DFD4F11821082812F183181
:1057C00008F087E18F5F80930C010E94291260939B
:1057D000200270932102809322029093230232E0F0
:1057E00083169104A104B1040CF4C3C0A0E6BAEE80
:1057F000A50194010E9415344B015C0188EC189FAF
:1058000090011124032E000C440B550B240D351D63
:10581000461D571DA5E0B0E00E9415349B01AC0168
:10582000C501B4010E94C73329013A0191EF49161D
:105830005104610471042CF020EF422E512C612C94
:10584000712C80911B0290911C02A0911D02B091BD
:105850001E022FB7F8948090DA029090DB02A0909D
:10586000DC02B090DD022FBF881A990AAA0ABB0A8F
:10587000A5E68A169104A104B10484F00E942912BD
:1058800060931B0270931C0280931D0290931E0272
:105890008091620280931A024092190210911A02BA
:1058A000A0911902A11BBB0BA50194010E942034F9
:1058B00024E630E040E050E00E94E933120F1093FC
:1058C00062028091A1028823D9F18091A002E09127
:1058D000F902E695E81BE0939C02823009F04DC086
:1058E000E695F0E0E05CFA4EE4910E2F10E095ECC6
:1058F000C92E9BE1D92E80919D02882361F01092E0
:105900009D020E94752190939B0280939A021092AF
:105910009F0210929E020E947521E0919A02F091DE
:105920009B028E1B9F0B8F3F9F4750F40E0F1F1F34
:1059300010939B0200939A028AE992E0F60109957E
:10594000912CF12CB4E0AB2EB12C1CEF812E7724DE
:1059500073940DEF502EAFC040815181052E000C85
:10596000660B770B840E951EA61EB71E2F5F3F4F4A
:10597000F0CE412C512C320164CF00ED17E084E2CF
:10598000C82E82E1D82EB7CF092D10E0E3B1E17027
:105990004D9990C180E08E2BD801A75ABD4FEC9154
:1059A0009E2F9370891709F485C0EE0FEE0FE82B38
:1059B000EC93EF70F0E0E759FE4F9801295A3D4F04
:1059C00069018081D9019C91890F8C9320E08430FA
:1059D0008CF1F801EA5AFD4F80818F5F80830E942D
:1059E00075219BAA5CAA7DAA8160782F9FAB8EABA4
:1059F000492D5DEF61E08FA90E945927EFE3FFE198
:105A00003197F1F700C000000E94752198AE59AEA1
:105A10001AAE8160782F9CAF8BAF492D5DEF60E0AF
:105A20008CAD0E9459278FE39FE10197F1F700C0E9
:105A3000000021E0D6018C918D3F8CF5F801EA5AE7
:105A4000FD4F8081815080830E94752199A68AA68E
:105A50007BA68160782F9DA78CA7492D5CEF61E024
:105A60008DA50E945927EFE3FFE13197F1F700C0C0
:105A700000000E9475219EA68FA618AA8160782F2B
:105A80009AAB89AB492D5CEF60E08AA90E94592747
:105A90008FE39FE10197F1F700C0000021E0D601FC
:105AA0008C91082E000C990BB5010E94B333F601BE
:105AB0008083F22A939480915802981608F464CF58
:105AC000F1100E9429128091D202882309F4A8C003
:105AD00088E093E090930905809308058091620225
